{
  "contractName": "ELOPresale",
  "abi": [
    {
      "inputs": [],
      "stateMutability": "nonpayable",
      "type": "constructor"
    },
    {
      "anonymous": false,
      "inputs": [
        {
          "indexed": false,
          "internalType": "address",
          "name": "",
          "type": "address"
        },
        {
          "indexed": false,
          "internalType": "uint256",
          "name": "",
          "type": "uint256"
        }
      ],
      "name": "UserDepsitedSuccess",
      "type": "event"
    },
    {
      "anonymous": false,
      "inputs": [
        {
          "indexed": false,
          "internalType": "uint256",
          "name": "",
          "type": "uint256"
        }
      ],
      "name": "UserWithdrawSuccess",
      "type": "event"
    },
    {
      "anonymous": false,
      "inputs": [
        {
          "indexed": false,
          "internalType": "uint256",
          "name": "",
          "type": "uint256"
        }
      ],
      "name": "UserWithdrawTokensSuccess",
      "type": "event"
    },
    {
      "inputs": [
        {
          "internalType": "address",
          "name": "",
          "type": "address"
        }
      ],
      "name": "buyers",
      "outputs": [
        {
          "internalType": "uint256",
          "name": "base",
          "type": "uint256"
        },
        {
          "internalType": "uint256",
          "name": "sale",
          "type": "uint256"
        }
      ],
      "stateMutability": "view",
      "type": "function",
      "constant": true
    },
    {
      "inputs": [],
      "name": "presale_info",
      "outputs": [
        {
          "internalType": "address",
          "name": "sale_token",
          "type": "address"
        },
        {
          "internalType": "uint256",
          "name": "token_rate",
          "type": "uint256"
        },
        {
          "internalType": "uint256",
          "name": "raise_min",
          "type": "uint256"
        },
        {
          "internalType": "uint256",
          "name": "raise_max",
          "type": "uint256"
        },
        {
          "internalType": "uint256",
          "name": "softcap",
          "type": "uint256"
        },
        {
          "internalType": "uint256",
          "name": "hardcap",
          "type": "uint256"
        },
        {
          "internalType": "uint256",
          "name": "presale_start",
          "type": "uint256"
        },
        {
          "internalType": "uint256",
          "name": "presale_end",
          "type": "uint256"
        }
      ],
      "stateMutability": "view",
      "type": "function",
      "constant": true
    },
    {
      "inputs": [],
      "name": "status",
      "outputs": [
        {
          "internalType": "bool",
          "name": "force_failed",
          "type": "bool"
        },
        {
          "internalType": "uint256",
          "name": "raised_amount",
          "type": "uint256"
        },
        {
          "internalType": "uint256",
          "name": "sold_amount",
          "type": "uint256"
        },
        {
          "internalType": "uint256",
          "name": "token_withdraw",
          "type": "uint256"
        },
        {
          "internalType": "uint256",
          "name": "base_withdraw",
          "type": "uint256"
        },
        {
          "internalType": "uint256",
          "name": "num_buyers",
          "type": "uint256"
        }
      ],
      "stateMutability": "view",
      "type": "function",
      "constant": true
    },
    {
      "inputs": [],
      "name": "tokeninfo",
      "outputs": [
        {
          "internalType": "string",
          "name": "name",
          "type": "string"
        },
        {
          "internalType": "string",
          "name": "symbol",
          "type": "string"
        },
        {
          "internalType": "uint256",
          "name": "totalsupply",
          "type": "uint256"
        },
        {
          "internalType": "uint256",
          "name": "decimal",
          "type": "uint256"
        }
      ],
      "stateMutability": "view",
      "type": "function",
      "constant": true
    },
    {
      "inputs": [
        {
          "internalType": "address",
          "name": "_sale_token",
          "type": "address"
        },
        {
          "internalType": "uint256",
          "name": "_token_rate",
          "type": "uint256"
        },
        {
          "internalType": "uint256",
          "name": "_raise_min",
          "type": "uint256"
        },
        {
          "internalType": "uint256",
          "name": "_raise_max",
          "type": "uint256"
        },
        {
          "internalType": "uint256",
          "name": "_softcap",
          "type": "uint256"
        },
        {
          "internalType": "uint256",
          "name": "_hardcap",
          "type": "uint256"
        },
        {
          "internalType": "uint256",
          "name": "_presale_start",
          "type": "uint256"
        },
        {
          "internalType": "uint256",
          "name": "_presale_end",
          "type": "uint256"
        }
      ],
      "name": "init_private",
      "outputs": [],
      "stateMutability": "nonpayable",
      "type": "function"
    },
    {
      "inputs": [],
      "name": "presaleStatus",
      "outputs": [
        {
          "internalType": "uint256",
          "name": "",
          "type": "uint256"
        }
      ],
      "stateMutability": "view",
      "type": "function",
      "constant": true
    },
    {
      "inputs": [],
      "name": "userDeposit",
      "outputs": [],
      "stateMutability": "payable",
      "type": "function",
      "payable": true
    },
    {
      "inputs": [],
      "name": "userWithdrawTokens",
      "outputs": [],
      "stateMutability": "nonpayable",
      "type": "function"
    },
    {
      "inputs": [],
      "name": "userWithdrawBaseTokens",
      "outputs": [],
      "stateMutability": "nonpayable",
      "type": "function"
    },
    {
      "inputs": [],
      "name": "purchaseICOCoin",
      "outputs": [],
      "stateMutability": "nonpayable",
      "type": "function"
    },
    {
      "inputs": [],
      "name": "getTimestamp",
      "outputs": [
        {
          "internalType": "uint256",
          "name": "",
          "type": "uint256"
        }
      ],
      "stateMutability": "view",
      "type": "function",
      "constant": true
    },
    {
      "inputs": [],
      "name": "refundTokens",
      "outputs": [],
      "stateMutability": "nonpayable",
      "type": "function"
    }
  ],
  "bytecode": "0x6080604052601580546001600160a01b03191661dead17905534801561002457600080fd5b506001600081905580546001600160a01b03191633179055611a178061004b6000396000f3fe6080604052600436106100a75760003560e01c8063710075091161006457806371007509146101fa57806397a993aa1461020f5780639d1213a71461025b578063acfb23551461035c578063c39e7dbb14610371578063fe8121de14610386576100a7565b8063188ec356146100ac5780631d9d0db1146100d35780631e8a7e65146100ea578063200d2ed21461014857806348146113146101925780634d18b5e21461019a575b600080fd5b3480156100b857600080fd5b506100c161039b565b60408051918252519081900360200190f35b3480156100df57600080fd5b506100e86103a0565b005b3480156100f657600080fd5b506100e8600480360361010081101561010e57600080fd5b506001600160a01b038135169060208101359060408101359060608101359060808101359060a08101359060c08101359060e001356104cf565b34801561015457600080fd5b5061015d610922565b6040805196151587526020870195909552858501939093526060850191909152608084015260a0830152519081900360c00190f35b6100e861093d565b3480156101a657600080fd5b506101af610cd9565b604080516001600160a01b0390991689526020890197909752878701959095526060870193909352608086019190915260a085015260c084015260e083015251908190036101000190f35b34801561020657600080fd5b506100e8610d00565b34801561021b57600080fd5b506102426004803603602081101561023257600080fd5b50356001600160a01b0316610edb565b6040805192835260208301919091528051918290030190f35b34801561026757600080fd5b50610270610ef4565b604051808060200180602001858152602001848152602001838103835287818151815260200191508051906020019080838360005b838110156102bd5781810151838201526020016102a5565b50505050905090810190601f1680156102ea5780820380516001836020036101000a031916815260200191505b50838103825286518152865160209182019188019080838360005b8381101561031d578181015183820152602001610305565b50505050905090810190601f16801561034a5780820380516001836020036101000a031916815260200191505b50965050505050505060405180910390f35b34801561036857600080fd5b506100c1611030565b34801561037d57600080fd5b506100e86110b0565b34801561039257600080fd5b506100e8611248565b425b90565b600260005414156103e6576040805162461bcd60e51b815260206004820152601f60248201526000805160206119a1833981519152604482015290519081900360640190fd5b60026000556001546001600160a01b0316331461043f576040805162461bcd60e51b81526020600482015260126024820152712737ba10383932b9b0b6329037bbb732b91760711b604482015290519081900360640190fd5b610447611030565b60021461048b576040805162461bcd60e51b815260206004820152600d60248201526c139bdd081cdd58d8d959591959609a1b604482015290519081900360640190fd5b6001546040516001600160a01b039091169081904780156108fc02916000818181858888f193505050501580156104c6573d6000803e3d6000fd5b50506001600055565b6001546001600160a01b03163314610523576040805162461bcd60e51b81526020600482015260126024820152712737ba10383932b9b0b6329037bbb732b91760711b604482015290519081900360640190fd5b6001600160a01b03881661056d576040805162461bcd60e51b815260206004820152600c60248201526b5a65726f204164647265737360a01b604482015290519081900360640190fd5b600280546001600160a01b0319166001600160a01b038a811691909117918290556003899055600488815560058890556006879055600786905560098490556008859055604080516306fdde0360e01b8152905193909216926306fdde03928083019260009291829003018186803b1580156105e857600080fd5b505afa1580156105fc573d6000803e3d6000fd5b505050506040513d6000823e601f3d908101601f19168201604052602081101561062557600080fd5b810190808051604051939291908464010000000082111561064557600080fd5b90830190602082018581111561065a57600080fd5b825164010000000081118282018810171561067457600080fd5b82525081516020918201929091019080838360005b838110156106a1578181015183820152602001610689565b50505050905090810190601f1680156106ce5780820380516001836020036101000a031916815260200191505b50604052505081516106e792601092506020019061190d565b50600254604080516395d89b4160e01b815290516001600160a01b03909216916395d89b4191600480820192600092909190829003018186803b15801561072d57600080fd5b505afa158015610741573d6000803e3d6000fd5b505050506040513d6000823e601f3d908101601f19168201604052602081101561076a57600080fd5b810190808051604051939291908464010000000082111561078a57600080fd5b90830190602082018581111561079f57600080fd5b82516401000000008111828201881017156107b957600080fd5b82525081516020918201929091019080838360005b838110156107e65781810151838201526020016107ce565b50505050905090810190601f1680156108135780820380516001836020036101000a031916815260200191505b506040525050815161082c92601192506020019061190d565b506002546040805163313ce56760e01b815290516001600160a01b039092169163313ce56791600480820192602092909190829003018186803b15801561087257600080fd5b505afa158015610886573d6000803e3d6000fd5b505050506040513d602081101561089c57600080fd5b505160ff16601355600254604080516318160ddd60e01b815290516001600160a01b03909216916318160ddd91600480820192602092909190829003018186803b1580156108e957600080fd5b505afa1580156108fd573d6000803e3d6000fd5b505050506040513d602081101561091357600080fd5b50516012555050505050505050565b600a54600b54600c54600d54600e54600f5460ff9095169486565b60026000541415610983576040805162461bcd60e51b815260206004820152601f60248201526000805160206119a1833981519152604482015290519081900360640190fd5b6002600055610990611030565b6001146109d1576040805162461bcd60e51b815260206004820152600a6024820152694e6f742041637469766560b01b604482015290519081900360640190fd5b600454341015610a21576040805162461bcd60e51b815260206004820152601660248201527510985b185b98d9481a5cc81a5b9cdd59999a58d95b9d60521b604482015290519081900360640190fd5b600554341115610a6e576040805162461bcd60e51b8152602060048201526013602482015272084c2d8c2dcc6ca40d2e640e8dede40daeac6d606b1b604482015290519081900360640190fd5b3360009081526014602052604081208054600554919234929091610a929190611438565b600b546007549192509003808211610aaa5781610aac565b805b915081831115610aba578192505b600354600090610acb908590611483565b905060008111610b10576040805162461bcd60e51b815260206004820152600b60248201526a5a45524f20544f4b454e5360a81b604482015290519081900360640190fd5b600254604080516370a0823160e01b815230600482015290516001600160a01b03909216916370a0823191602480820192602092909190829003018186803b158015610b5b57600080fd5b505afa158015610b6f573d6000803e3d6000fd5b505050506040513d6020811015610b8557600080fd5b5051600354600b54021115610bd6576040805162461bcd60e51b81526020600482015260126024820152712a37b5b2b7103932b6b0b4b71032b93937b960711b604482015290519081900360640190fd5b8454610be657600f805460010190555b33600090815260146020526040902054610c0090856114dc565b33600090815260146020526040902090815560010154610c2090826114dc565b33600090815260146020526040902060010155600b54610c4090856114dc565b600b55600c54610c5090826114dc565b600c5534841015610c9357336108fc610c693487611438565b6040518115909202916000818181858888f19350505050158015610c91573d6000803e3d6000fd5b505b6040805133815234602082015281517f6800c78b31b30f29de1de17ff27c5e7c5a990802a69fd1216dd496bafd9c6e01929181900390910190a150506001600055505050565b6002546003546004546005546006546007546008546009546001600160a01b039097169688565b6001546001600160a01b03163314610d54576040805162461bcd60e51b81526020600482015260126024820152712737ba10383932b9b0b6329037bbb732b91760711b604482015290519081900360640190fd5b610d5c611030565b600214610da0576040805162461bcd60e51b815260206004820152600d60248201526c139bdd081cdd58d8d959591959609a1b604482015290519081900360640190fd5b6009544211610df6576040805162461bcd60e51b815260206004820152601e60248201527f4d7573742062652061667465722070726573616c6520656e642074696d650000604482015290519081900360640190fd5b600254604080516370a0823160e01b815230600482015290516000926001600160a01b0316916370a08231916024808301926020929190829003018186803b158015610e4157600080fd5b505afa158015610e55573d6000803e3d6000fd5b505050506040513d6020811015610e6b57600080fd5b5051905080610ec1576040805162461bcd60e51b815260206004820152601e60248201527f4e6f20746f6b656e20696e207468697320636f6e7472616374206e6f772e0000604482015290519081900360640190fd5b600254610ed8906001600160a01b03163383611536565b50565b6014602052600090815260409020805460019091015482565b60108054604080516020601f60026000196101006001881615020190951694909404938401819004810282018101909252828152918391830182828015610f7c5780601f10610f5157610100808354040283529160200191610f7c565b820191906000526020600020905b815481529060010190602001808311610f5f57829003601f168201915b505050505090806001018054600181600116156101000203166002900480601f01602080910402602001604051908101604052809291908181526020018280546001816001161561010002031660029004801561101a5780601f10610fef5761010080835404028352916020019161101a565b820191906000526020600020905b815481529060010190602001808311610ffd57829003601f168201915b5050505050908060020154908060030154905084565b600954600090421180156110475750600654600b54105b156110545750600361039d565b600754600b54106110675750600261039d565b6009544211801561107c5750600654600b5410155b156110895750600261039d565b600854421080159061109d57506009544211155b156110aa5750600161039d565b50600090565b600260005414156110f6576040805162461bcd60e51b815260206004820152601f60248201526000805160206119a1833981519152604482015290519081900360640190fd5b6002600055611103611030565b600314611145576040805162461bcd60e51b815260206004820152600b60248201526a2737ba103330b4b632b21760a91b604482015290519081900360640190fd5b336000908152601460205260409020805447908110156111a3576040805162461bcd60e51b81526020600482015260146024820152732737ba3434b733903a37903bb4ba34323930bb9760611b604482015290519081900360640190fd5b8154600e546111b1916114dc565b600e5581546040513391829181156108fc0291906000818181858888f193505050501580156111e4573d6000803e3d6000fd5b506001546001600160a01b0316331415611200576112006116a0565b60008084556001840181905560408051918252517fba8f86526b8f4836c344cbbb8d752a5deb45d8d86c8fdcc0318124656ed1f1699181900360200190a15050600160005550565b6002600054141561128e576040805162461bcd60e51b815260206004820152601f60248201526000805160206119a1833981519152604482015290519081900360640190fd5b600260005561129b611030565b6002146112df576040805162461bcd60e51b815260206004820152600d60248201526c139bdd081cdd58d8d959591959609a1b604482015290519081900360640190fd5b336000908152601460205260408120600d54600c5491929161130091611438565b90508160010154811015611352576040805162461bcd60e51b81526020600482015260146024820152732737ba3434b733903a37903bb4ba34323930bb9760611b604482015290519081900360640190fd5b336000908152601460205260409020600101546113ac576040805162461bcd60e51b81526020600482015260136024820152724e6f7468696e6720746f20776974686472617760681b604482015290519081900360640190fd5b60025460018301546113c9916001600160a01b0316903390611536565b6001820154600d546113da916114dc565b600d55336000908152601460209081526040808320600180820185905593905591840154825190815291517f6eb77a5c4ed3153e65b1a8804e82c2ffa0d2b39fd8dba4ae39b6476c7bf65f7e9281900390910190a150506001600055565b600061147a83836040518060400160405280601e81526020017f536166654d6174683a207375627472616374696f6e206f766572666c6f770000815250611876565b90505b92915050565b6000826114925750600061147d565b8282028284828161149f57fe5b041461147a5760405162461bcd60e51b81526004018080602001828103825260218152602001806119c16021913960400191505060405180910390fd5b60008282018381101561147a576040805162461bcd60e51b815260206004820152601b60248201527f536166654d6174683a206164646974696f6e206f766572666c6f770000000000604482015290519081900360640190fd5b604080516001600160a01b038481166024830152604480830185905283518084039091018152606490920183526020820180516001600160e01b031663a9059cbb60e01b178152925182516000946060949389169392918291908083835b602083106115b35780518252601f199092019160209182019101611594565b6001836020036101000a0380198251168184511680821785525050505050509050019150506000604051808303816000865af19150503d8060008114611615576040519150601f19603f3d011682016040523d82523d6000602084013e61161a565b606091505b5091509150818015611648575080511580611648575080806020019051602081101561164557600080fd5b50515b611699576040805162461bcd60e51b815260206004820152601f60248201527f5472616e7366657248656c7065723a205452414e534645525f4641494c454400604482015290519081900360640190fd5b5050505050565b6001546001600160a01b031633146116f4576040805162461bcd60e51b81526020600482015260126024820152712737ba10383932b9b0b6329037bbb732b91760711b604482015290519081900360640190fd5b6116fc611030565b600314611746576040805162461bcd60e51b815260206004820152601360248201527227b7363c903330b4b632b21039ba30ba3ab99760691b604482015290519081900360640190fd5b600254600154604080516370a0823160e01b815230600482015290516117cd936001600160a01b0390811693169183916370a0823191602480820192602092909190829003018186803b15801561179c57600080fd5b505afa1580156117b0573d6000803e3d6000fd5b505050506040513d60208110156117c657600080fd5b5051611536565b600254604080516370a0823160e01b815230600482015290517fba8f86526b8f4836c344cbbb8d752a5deb45d8d86c8fdcc0318124656ed1f169926001600160a01b0316916370a08231916024808301926020929190829003018186803b15801561183757600080fd5b505afa15801561184b573d6000803e3d6000fd5b505050506040513d602081101561186157600080fd5b505160408051918252519081900360200190a1565b600081848411156119055760405162461bcd60e51b81526004018080602001828103825283818151815260200191508051906020019080838360005b838110156118ca5781810151838201526020016118b2565b50505050905090810190601f1680156118f75780820380516001836020036101000a031916815260200191505b509250505060405180910390fd5b505050900390565b828054600181600116156101000203166002900490600052602060002090601f016020900481019282601f1061194e57805160ff191683800117855561197b565b8280016001018555821561197b579182015b8281111561197b578251825591602001919060010190611960565b5061198792915061198b565b5090565b5b80821115611987576000815560010161198c56fe5265656e7472616e637947756172643a207265656e7472616e742063616c6c00536166654d6174683a206d756c7469706c69636174696f6e206f766572666c6f77a2646970667358221220e9f7bc542c608ce407d6e8c1554672565bfd55161f5e8c487cdf233a222821ce64736f6c634300060c0033",
  "immutableReferences": {},
  "source": "/****************************************\r\n*                                       *                 \r\n*    effortlessorder.org 2024@April     *\r\n*                                       *\r\n****************************************/\r\n\r\n// SPDX-License-Identifier: MIT\r\n\r\npragma solidity ^0.6.12;\r\n\r\nabstract contract Context {\r\n    function _msgSender() internal view virtual returns (address payable) {\r\n        return msg.sender;\r\n    }\r\n\r\n    function _msgData() internal view virtual returns (bytes memory) {\r\n        this; // silence state mutability warning without generating bytecode - see https://github.com/ethereum/solidity/issues/2691\r\n        return msg.data;\r\n    }\r\n}\r\n\r\nabstract contract Ownable is Context {\r\n    address private _owner;\r\n\r\n    event OwnershipTransferred(address indexed previousOwner, address indexed newOwner);\r\n\r\n    /**\r\n     * @dev Initializes the contract setting the deployer as the initial owner.\r\n     */\r\n    constructor () internal{\r\n        address msgSender = _msgSender();\r\n        _owner = msgSender;\r\n        emit OwnershipTransferred(address(0), msgSender);\r\n    }\r\n\r\n    /**\r\n     * @dev Returns the address of the current owner.\r\n     */\r\n    function owner() public view returns (address) {\r\n        return _owner;\r\n    }\r\n\r\n    /**\r\n     * @dev Throws if called by any account other than the owner.\r\n     */\r\n    modifier onlyOwner() {\r\n        require(_owner == _msgSender(), \"Ownable: caller is not the owner\");\r\n        _;\r\n    }\r\n\r\n    /**\r\n     * @dev Leaves the contract without owner. It will not be possible to call\r\n     * `onlyOwner` functions anymore. Can only be called by the current owner.\r\n     *\r\n     * NOTE: Renouncing ownership will leave the contract without an owner,\r\n     * thereby removing any functionality that is only available to the owner.\r\n     */\r\n    function renounceOwnership() public virtual onlyOwner {\r\n        emit OwnershipTransferred(_owner, address(0));\r\n        _owner = address(0);\r\n    }\r\n\r\n    /**\r\n     * @dev Transfers ownership of the contract to a new account (`newOwner`).\r\n     * Can only be called by the current owner.\r\n     */\r\n    function transferOwnership(address newOwner) public virtual onlyOwner {\r\n        require(newOwner != address(0), \"Ownable: new owner is the zero address\");\r\n        emit OwnershipTransferred(_owner, newOwner);\r\n        _owner = newOwner;\r\n    }\r\n}\r\n\r\nlibrary SafeMath {\r\n    /**\r\n     * @dev Returns the addition of two unsigned integers, reverting on\r\n     * overflow.\r\n     *\r\n     * Counterpart to Solidity's `+` operator.\r\n     *\r\n     * Requirements:\r\n     *\r\n     * - Addition cannot overflow.\r\n     */\r\n    function add(uint256 a, uint256 b) internal pure returns (uint256) {\r\n        uint256 c = a + b;\r\n        require(c >= a, \"SafeMath: addition overflow\");\r\n\r\n        return c;\r\n    }\r\n\r\n    /**\r\n     * @dev Returns the subtraction of two unsigned integers, reverting on\r\n     * overflow (when the result is negative).\r\n     *\r\n     * Counterpart to Solidity's `-` operator.\r\n     *\r\n     * Requirements:\r\n     *\r\n     * - Subtraction cannot overflow.\r\n     */\r\n    function sub(uint256 a, uint256 b) internal pure returns (uint256) {\r\n        return sub(a, b, \"SafeMath: subtraction overflow\");\r\n    }\r\n\r\n    /**\r\n     * @dev Returns the subtraction of two unsigned integers, reverting with custom message on\r\n     * overflow (when the result is negative).\r\n     *\r\n     * Counterpart to Solidity's `-` operator.\r\n     *\r\n     * Requirements:\r\n     *\r\n     * - Subtraction cannot overflow.\r\n     */\r\n    function sub(uint256 a, uint256 b, string memory errorMessage) internal pure returns (uint256) {\r\n        require(b <= a, errorMessage);\r\n        uint256 c = a - b;\r\n\r\n        return c;\r\n    }\r\n\r\n    /**\r\n     * @dev Returns the multiplication of two unsigned integers, reverting on\r\n     * overflow.\r\n     *\r\n     * Counterpart to Solidity's `*` operator.\r\n     *\r\n     * Requirements:\r\n     *\r\n     * - Multiplication cannot overflow.\r\n     */\r\n    function mul(uint256 a, uint256 b) internal pure returns (uint256) {\r\n        // Gas optimization: this is cheaper than requiring 'a' not being zero, but the\r\n        // benefit is lost if 'b' is also tested.\r\n        // See: https://github.com/OpenZeppelin/openzeppelin-contracts/pull/522\r\n        if (a == 0) {\r\n            return 0;\r\n        }\r\n\r\n        uint256 c = a * b;\r\n        require(c / a == b, \"SafeMath: multiplication overflow\");\r\n\r\n        return c;\r\n    }\r\n\r\n    /**\r\n     * @dev Returns the integer division of two unsigned integers. Reverts on\r\n     * division by zero. The result is rounded towards zero.\r\n     *\r\n     * Counterpart to Solidity's `/` operator. Note: this function uses a\r\n     * `revert` opcode (which leaves remaining gas untouched) while Solidity\r\n     * uses an invalid opcode to revert (consuming all remaining gas).\r\n     *\r\n     * Requirements:\r\n     *\r\n     * - The divisor cannot be zero.\r\n     */\r\n    function div(uint256 a, uint256 b) internal pure returns (uint256) {\r\n        return div(a, b, \"SafeMath: division by zero.\");\r\n    }\r\n\r\n    /**\r\n     * @dev Returns the integer division of two unsigned integers. Reverts with custom message on\r\n     * division by zero. The result is rounded towards zero.\r\n     *\r\n     * Counterpart to Solidity's `/` operator. Note: this function uses a\r\n     * `revert` opcode (which leaves remaining gas untouched) while Solidity\r\n     * uses an invalid opcode to revert (consuming all remaining gas).\r\n     *\r\n     * Requirements:\r\n     *\r\n     * - The divisor cannot be zero.\r\n     */\r\n    function div(uint256 a, uint256 b, string memory errorMessage) internal pure returns (uint256) {\r\n        require(b > 0, errorMessage);\r\n        uint256 c = a / b;\r\n        // assert(a == b * c + a % b); // There is no case in which this doesn't hold\r\n\r\n        return c;\r\n    }\r\n\r\n    /**\r\n     * @dev Returns the remainder of dividing two unsigned integers. (unsigned integer modulo),\r\n     * Reverts when dividing by zero.\r\n     *\r\n     * Counterpart to Solidity's `%` operator. This function uses a `revert`\r\n     * opcode (which leaves remaining gas untouched) while Solidity uses an\r\n     * invalid opcode to revert (consuming all remaining gas).\r\n     *\r\n     * Requirements:\r\n     *\r\n     * - The divisor cannot be zero.\r\n     */\r\n    function mod(uint256 a, uint256 b) internal pure returns (uint256) {\r\n        return mod(a, b, \"SafeMath: modulo by zero\");\r\n    }\r\n\r\n    /**\r\n     * @dev Returns the remainder of dividing two unsigned integers. (unsigned integer modulo),\r\n     * Reverts with custom message when dividing by zero.\r\n     *\r\n     * Counterpart to Solidity's `%` operator. This function uses a `revert`\r\n     * opcode (which leaves remaining gas untouched) while Solidity uses an\r\n     * invalid opcode to revert (consuming all remaining gas).\r\n     *\r\n     * Requirements:\r\n     *\r\n     * - The divisor cannot be zero.\r\n     */\r\n    function mod(uint256 a, uint256 b, string memory errorMessage) internal pure returns (uint256) {\r\n        require(b != 0, errorMessage);\r\n        return a % b;\r\n    }\r\n}\r\n\r\nabstract contract ReentrancyGuard {\r\n    // Booleans are more expensive than uint256 or any type that takes up a full\r\n    // word because each write operation emits an extra SLOAD to first read the\r\n    // slot's contents, replace the bits taken up by the boolean, and then write\r\n    // back. This is the compiler's defense against contract upgrades and\r\n    // pointer aliasing, and it cannot be disabled.\r\n\r\n    // The values being non-zero value makes deployment a bit more expensive,\r\n    // but in exchange the refund on every call to nonReentrant will be lower in\r\n    // amount. Since refunds are capped to a percentage of the total\r\n    // transaction's gas, it is best to keep them low in cases like this one, to\r\n    // increase the likelihood of the full refund coming into effect.\r\n    uint256 private constant _NOT_ENTERED = 1;\r\n    uint256 private constant _ENTERED = 2;\r\n\r\n    uint256 private _status;\r\n\r\n    constructor () internal {\r\n        _status = _NOT_ENTERED;\r\n    }\r\n\r\n    /**\r\n     * @dev Prevents a contract from calling itself, directly or indirectly.\r\n     * Calling a `nonReentrant` function from another `nonReentrant`\r\n     * function is not supported. It is possible to prevent this from happening\r\n     * by making the `nonReentrant` function external, and make it call a\r\n     * `private` function that does the actual work.\r\n     */\r\n    modifier nonReentrant() {\r\n        // On the first call to nonReentrant, _notEntered will be true\r\n        require(_status != _ENTERED, \"ReentrancyGuard: reentrant call\");\r\n\r\n        // Any calls to nonReentrant after this point will fail\r\n        _status = _ENTERED;\r\n\r\n        _;\r\n\r\n        // By storing the original value once again, a refund is triggered (see\r\n        // https://eips.ethereum.org/EIPS/eip-2200)\r\n        _status = _NOT_ENTERED;\r\n    }\r\n}\r\n\r\nlibrary TransferHelper {\r\n    function safeApprove(address token, address to, uint value) internal {\r\n        (bool success, bytes memory data) = token.call(abi.encodeWithSelector(0x095ea7b3, to, value));\r\n        require(success && (data.length == 0 || abi.decode(data, (bool))), 'TransferHelper: APPROVE_FAILED');\r\n    }\r\n\r\n    function safeTransfer(address token, address to, uint value) internal {\r\n        (bool success, bytes memory data) = token.call(abi.encodeWithSelector(0xa9059cbb, to, value));\r\n        require(success && (data.length == 0 || abi.decode(data, (bool))), 'TransferHelper: TRANSFER_FAILED');\r\n    }\r\n\r\n    function safeTransferFrom(address token, address from, address to, uint value) internal {\r\n        (bool success, bytes memory data) = token.call(abi.encodeWithSelector(0x23b872dd, from, to, value));\r\n        require(success && (data.length == 0 || abi.decode(data, (bool))), 'TransferHelper: TRANSFER_FROM_FAILED');\r\n    }\r\n    \r\n    // sends ETH or an erc20 token\r\n    function safeTransferBaseToken(address token, address payable to, uint value, bool isERC20) internal {\r\n        if (!isERC20) {\r\n            to.transfer(value);\r\n        } else {\r\n            (bool success, bytes memory data) = token.call(abi.encodeWithSelector(0xa9059cbb, to, value));\r\n            require(success && (data.length == 0 || abi.decode(data, (bool))), 'TransferHelper: TRANSFER_FAILED');\r\n        }\r\n    }\r\n}\r\n\r\nlibrary EnumerableSet {\r\n    // To implement this library for multiple types with as little code\r\n    // repetition as possible, we write it in terms of a generic Set type with\r\n    // bytes32 values.\r\n    // The Set implementation uses private functions, and user-facing\r\n    // implementations (such as AddressSet) are just wrappers around the\r\n    // underlying Set.\r\n    // This means that we can only create new EnumerableSets for types that fit\r\n    // in bytes32.\r\n\r\n    struct Set {\r\n        // Storage of set values\r\n        bytes32[] _values;\r\n\r\n        // Position of the value in the `values` array, plus 1 because index 0\r\n        // means a value is not in the set.\r\n        mapping (bytes32 => uint256) _indexes;\r\n    }\r\n\r\n    /**\r\n     * @dev Add a value to a set. O(1).\r\n     *\r\n     * Returns true if the value was added to the set, that is if it was not\r\n     * already present.\r\n     */\r\n    function _add(Set storage set, bytes32 value) private returns (bool) {\r\n        if (!_contains(set, value)) {\r\n            set._values.push(value);\r\n            // The value is stored at length-1, but we add 1 to all indexes\r\n            // and use 0 as a sentinel value\r\n            set._indexes[value] = set._values.length;\r\n            return true;\r\n        } else {\r\n            return false;\r\n        }\r\n    }\r\n\r\n    /**\r\n     * @dev Removes a value from a set. O(1).\r\n     *\r\n     * Returns true if the value was removed from the set, that is if it was\r\n     * present.\r\n     */\r\n    function _remove(Set storage set, bytes32 value) private returns (bool) {\r\n        // We read and store the value's index to prevent multiple reads from the same storage slot\r\n        uint256 valueIndex = set._indexes[value];\r\n\r\n        if (valueIndex != 0) { // Equivalent to contains(set, value)\r\n            // To delete an element from the _values array in O(1), we swap the element to delete with the last one in\r\n            // the array, and then remove the last element (sometimes called as 'swap and pop').\r\n            // This modifies the order of the array, as noted in {at}.\r\n\r\n            uint256 toDeleteIndex = valueIndex - 1;\r\n            uint256 lastIndex = set._values.length - 1;\r\n\r\n            // When the value to delete is the last one, the swap operation is unnecessary. However, since this occurs\r\n            // so rarely, we still do the swap anyway to avoid the gas cost of adding an 'if' statement.\r\n\r\n            bytes32 lastvalue = set._values[lastIndex];\r\n\r\n            // Move the last value to the index where the value to delete is\r\n            set._values[toDeleteIndex] = lastvalue;\r\n            // Update the index for the moved value\r\n            set._indexes[lastvalue] = toDeleteIndex + 1; // All indexes are 1-based\r\n\r\n            // Delete the slot where the moved value was stored\r\n            set._values.pop();\r\n\r\n            // Delete the index for the deleted slot\r\n            delete set._indexes[value];\r\n\r\n            return true;\r\n        } else {\r\n            return false;\r\n        }\r\n    }\r\n\r\n    /**\r\n     * @dev Returns true if the value is in the set. O(1).\r\n     */\r\n    function _contains(Set storage set, bytes32 value) private view returns (bool) {\r\n        return set._indexes[value] != 0;\r\n    }\r\n\r\n    /**\r\n     * @dev Returns the number of values on the set. O(1).\r\n     */\r\n    function _length(Set storage set) private view returns (uint256) {\r\n        return set._values.length;\r\n    }\r\n\r\n   /**\r\n    * @dev Returns the value stored at position `index` in the set. O(1).\r\n    *\r\n    * Note that there are no guarantees on the ordering of values inside the\r\n    * array, and it may change when more values are added or removed.\r\n    *\r\n    * Requirements:\r\n    *\r\n    * - `index` must be strictly less than {length}.\r\n    */\r\n    function _at(Set storage set, uint256 index) private view returns (bytes32) {\r\n        require(set._values.length > index, \"EnumerableSet: index out of bounds.\");\r\n        return set._values[index];\r\n    }\r\n\r\n    // Bytes32Set\r\n\r\n    struct Bytes32Set {\r\n        Set _inner;\r\n    }\r\n\r\n    /**\r\n     * @dev Add a value to a set. O(1).\r\n     *\r\n     * Returns true if the value was added to the set, that is if it was not\r\n     * already present.\r\n     */\r\n    function add(Bytes32Set storage set, bytes32 value) internal returns (bool) {\r\n        return _add(set._inner, value);\r\n    }\r\n\r\n    /**\r\n     * @dev Removes a value from a set. O(1).\r\n     *\r\n     * Returns true if the value was removed from the set, that is if it was\r\n     * present.\r\n     */\r\n    function remove(Bytes32Set storage set, bytes32 value) internal returns (bool) {\r\n        return _remove(set._inner, value);\r\n    }\r\n\r\n    /**\r\n     * @dev Returns true if the value is in the set. O(1).\r\n     */\r\n    function contains(Bytes32Set storage set, bytes32 value) internal view returns (bool) {\r\n        return _contains(set._inner, value);\r\n    }\r\n\r\n    /**\r\n     * @dev Returns the number of values in the set. O(1).\r\n     */\r\n    function length(Bytes32Set storage set) internal view returns (uint256) {\r\n        return _length(set._inner);\r\n    }\r\n\r\n   /**\r\n    * @dev Returns the value stored at position `index` in the set. O(1).\r\n    *\r\n    * Note that there are no guarantees on the ordering of values inside the\r\n    * array, and it may change when more values are added or removed.\r\n    *\r\n    * Requirements:\r\n    *\r\n    * - `index` must be strictly less than {length}.\r\n    */\r\n    function at(Bytes32Set storage set, uint256 index) internal view returns (bytes32) {\r\n        return _at(set._inner, index);\r\n    }\r\n\r\n    // AddressSet\r\n\r\n    struct AddressSet {\r\n        Set _inner;\r\n    }\r\n\r\n    /**\r\n     * @dev Add a value to a set. O(1).\r\n     *\r\n     * Returns true if the value was added to the set, that is if it was not\r\n     * already present.\r\n     */\r\n    function add(AddressSet storage set, address value) internal returns (bool) {\r\n        return _add(set._inner, bytes32(uint256(value)));\r\n    }\r\n\r\n    /**\r\n     * @dev Removes a value from a set. O(1).\r\n     *\r\n     * Returns true if the value was removed from the set, that is if it was\r\n     * present.\r\n     */\r\n    function remove(AddressSet storage set, address value) internal returns (bool) {\r\n        return _remove(set._inner, bytes32(uint256(value)));\r\n    }\r\n\r\n    /**\r\n     * @dev Returns true if the value is in the set. O(1).\r\n     */\r\n    function contains(AddressSet storage set, address value) internal view returns (bool) {\r\n        return _contains(set._inner, bytes32(uint256(value)));\r\n    }\r\n\r\n    /**\r\n     * @dev Returns the number of values in the set. O(1).\r\n     */\r\n    function length(AddressSet storage set) internal view returns (uint256) {\r\n        return _length(set._inner);\r\n    }\r\n\r\n   /**\r\n    * @dev Returns the value stored at position `index` in the set. O(1).\r\n    *\r\n    * Note that there are no guarantees on the ordering of values inside the\r\n    * array, and it may change when more values are added or removed.\r\n    *\r\n    * Requirements:\r\n    *\r\n    * - `index` must be strictly less than {length}.\r\n    */\r\n    function at(AddressSet storage set, uint256 index) internal view returns (address) {\r\n        return address(uint256(_at(set._inner, index)));\r\n    }\r\n\r\n\r\n    // UintSet\r\n\r\n    struct UintSet {\r\n        Set _inner;\r\n    }\r\n\r\n    /**\r\n     * @dev Add a value to a set. O(1).\r\n     *\r\n     * Returns true if the value was added to the set, that is if it was not\r\n     * already present.\r\n     */\r\n    function add(UintSet storage set, uint256 value) internal returns (bool) {\r\n        return _add(set._inner, bytes32(value));\r\n    }\r\n\r\n    /**\r\n     * @dev Removes a value from a set. O(1).\r\n     *\r\n     * Returns true if the value was removed from the set, that is if it was\r\n     * present.\r\n     */\r\n    function remove(UintSet storage set, uint256 value) internal returns (bool) {\r\n        return _remove(set._inner, bytes32(value));\r\n    }\r\n\r\n    /**\r\n     * @dev Returns true if the value is in the set. O(1).\r\n     */\r\n    function contains(UintSet storage set, uint256 value) internal view returns (bool) {\r\n        return _contains(set._inner, bytes32(value));\r\n    }\r\n\r\n    /**\r\n     * @dev Returns the number of values on the set. O(1).\r\n     */\r\n    function length(UintSet storage set) internal view returns (uint256) {\r\n        return _length(set._inner);\r\n    }\r\n\r\n   /**\r\n    * @dev Returns the value stored at position `index` in the set. O(1).\r\n    *\r\n    * Note that there are no guarantees on the ordering of values inside the\r\n    * array, and it may change when more values are added or removed.\r\n    *\r\n    * Requirements:\r\n    *\r\n    * - `index` must be strictly less than {length}.\r\n    */\r\n    function at(UintSet storage set, uint256 index) internal view returns (uint256) {\r\n        return uint256(_at(set._inner, index));\r\n    }\r\n}\r\n\r\ninterface IERC20 {\r\n    event Approval(address indexed owner, address indexed spender, uint value);\r\n    event Transfer(address indexed from, address indexed to, uint value);\r\n    \r\n    function decimals() external view returns (uint8);\r\n    function name() external view returns (string memory);\r\n    function symbol() external view returns (string memory);\r\n    function totalSupply() external view returns (uint);\r\n    function balanceOf(address owner) external view returns (uint);\r\n    function allowance(address owner, address spender) external view returns (uint);\r\n\r\n    function approve(address spender, uint value) external returns (bool);\r\n    function transfer(address to, uint value) external returns (bool);\r\n    function transferFrom(address from, address to, uint value) external returns (bool);\r\n}\r\n\r\ncontract ELOPresale is ReentrancyGuard {\r\n    using SafeMath for uint256;\r\n\r\n    struct PresaleInfo {\r\n        address sale_token; // Sale token\r\n        uint256 token_rate; // 1 base token = ? s_tokens, fixed price\r\n        uint256 raise_min; // Maximum base token BUY amount per buyer\r\n        uint256 raise_max; // The amount of presale tokens up for presale\r\n        uint256 softcap; // Minimum raise amount\r\n        uint256 hardcap; // Maximum raise amount\r\n        uint256 presale_start;\r\n        uint256 presale_end;\r\n    }\r\n\r\n    struct PresaleStatus {\r\n        bool force_failed; // Set this flag to force fail the presale\r\n        uint256 raised_amount; // Total base currency raised (usually ETH)\r\n        uint256 sold_amount; // Total presale tokens sold\r\n        uint256 token_withdraw; // Total tokens withdrawn post successful presale\r\n        uint256 base_withdraw; // Total base tokens withdrawn on presale failure\r\n        uint256 num_buyers; // Number of unique participants\r\n    }\r\n\r\n    struct BuyerInfo {\r\n        uint256 base; // Total base token (usually ETH) deposited by user, can be withdrawn on presale failure\r\n        uint256 sale; // Num presale tokens a user owned, can be withdrawn on presale success\r\n    }\r\n    \r\n    struct TokenInfo {\r\n        string name;\r\n        string symbol;\r\n        uint256 totalsupply;\r\n        uint256 decimal;\r\n    }\r\n  \r\n    address owner;\r\n\r\n    PresaleInfo public presale_info;\r\n    PresaleStatus public status;\r\n    TokenInfo public tokeninfo;\r\n\r\n    mapping(address => BuyerInfo) public buyers;\r\n\r\n    event UserDepsitedSuccess(address, uint256);\r\n    event UserWithdrawSuccess(uint256);\r\n    event UserWithdrawTokensSuccess(uint256);\r\n\r\n    address deadaddr = 0x000000000000000000000000000000000000dEaD;\r\n\r\n    modifier onlyOwner() {\r\n        require(owner == msg.sender, \"Not presale owner.\");\r\n        _;\r\n    }\r\n\r\n    constructor() public{\r\n        owner = msg.sender;\r\n    }\r\n\r\n    function init_private (\r\n        address _sale_token,\r\n        uint256 _token_rate,\r\n        uint256 _raise_min, \r\n        uint256 _raise_max, \r\n        uint256 _softcap, \r\n        uint256 _hardcap,\r\n        uint256 _presale_start,\r\n        uint256 _presale_end\r\n        ) public onlyOwner {\r\n\r\n        require(_sale_token != address(0), \"Zero Address\");\r\n        \r\n        presale_info.sale_token = address(_sale_token);\r\n        presale_info.token_rate = _token_rate;\r\n        presale_info.raise_min = _raise_min;\r\n        presale_info.raise_max = _raise_max;\r\n        presale_info.softcap = _softcap;\r\n        presale_info.hardcap = _hardcap;\r\n\r\n        presale_info.presale_end = _presale_end;\r\n        presale_info.presale_start =  _presale_start;\r\n        \r\n        //Set token token info\r\n        tokeninfo.name = IERC20(presale_info.sale_token).name();\r\n        tokeninfo.symbol = IERC20(presale_info.sale_token).symbol();\r\n        tokeninfo.decimal = IERC20(presale_info.sale_token).decimals();\r\n        tokeninfo.totalsupply = IERC20(presale_info.sale_token).totalSupply();\r\n\r\n    }\r\n\r\n    function presaleStatus() public view returns (uint256) {\r\n        if ((block.timestamp > presale_info.presale_end) && (status.raised_amount < presale_info.softcap)) {\r\n            return 3; // Failure\r\n        }\r\n        if (status.raised_amount >= presale_info.hardcap) {\r\n            return 2; // Wonderful - reached to Hardcap\r\n        }\r\n        if ((block.timestamp > presale_info.presale_end) && (status.raised_amount >= presale_info.softcap)) {\r\n            return 2; // SUCCESS - Presale ended with reaching Softcap\r\n        }\r\n        if ((block.timestamp >= presale_info.presale_start) && (block.timestamp <= presale_info.presale_end)) {\r\n            return 1; // ACTIVE - Deposits enabled, now in Presale\r\n        }\r\n            return 0; // QUED - Awaiting start block\r\n    }\r\n    \r\n    // Accepts msg.value for eth or _amount for ERC20 tokens\r\n    function userDeposit () public payable nonReentrant {\r\n        require(presaleStatus() == 1, \"Not Active\");\r\n        require(presale_info.raise_min <= msg.value, \"Balance is insufficent\");\r\n        require(presale_info.raise_max >= msg.value, \"Balance is too much\");\r\n\r\n        BuyerInfo storage buyer = buyers[msg.sender];\r\n\r\n        uint256 amount_in = msg.value;\r\n        uint256 allowance = presale_info.raise_max.sub(buyer.base);\r\n        uint256 remaining = presale_info.hardcap - status.raised_amount;\r\n\r\n        allowance = allowance > remaining ? remaining : allowance;\r\n        if (amount_in > allowance) {\r\n            amount_in = allowance;\r\n        }\r\n\r\n        uint256 tokensSold = amount_in.mul(presale_info.token_rate);\r\n\r\n        require(tokensSold > 0, \"ZERO TOKENS\");\r\n        require(status.raised_amount * presale_info.token_rate <= IERC20(presale_info.sale_token).balanceOf(address(this)), \"Token remain error\");\r\n        \r\n        if (buyer.base == 0) {\r\n            status.num_buyers++;\r\n        }\r\n        buyers[msg.sender].base = buyers[msg.sender].base.add(amount_in);\r\n        buyers[msg.sender].sale = buyers[msg.sender].sale.add(tokensSold);\r\n        status.raised_amount = status.raised_amount.add(amount_in);\r\n        status.sold_amount = status.sold_amount.add(tokensSold);\r\n        \r\n        // return unused ETH\r\n        if (amount_in < msg.value) {\r\n            msg.sender.transfer(msg.value.sub(amount_in));\r\n        }\r\n        \r\n        emit UserDepsitedSuccess(msg.sender, msg.value);\r\n    }\r\n    \r\n    // withdraw presale tokens\r\n    // percentile withdrawls allows fee on transfer or rebasing tokens to still work\r\n    function userWithdrawTokens () public nonReentrant {\r\n        require(presaleStatus() == 2, \"Not succeeded\"); // Success\r\n        \r\n        BuyerInfo storage buyer = buyers[msg.sender];\r\n        uint256 remaintoken = status.sold_amount.sub(status.token_withdraw);\r\n        require(remaintoken >= buyer.sale, \"Nothing to withdraw.\");\r\n        require(buyers[msg.sender].sale != 0, \"Nothing to withdraw\");\r\n\r\n        TransferHelper.safeTransfer(address(presale_info.sale_token), msg.sender, buyer.sale);\r\n        \r\n        status.token_withdraw = status.token_withdraw.add(buyer.sale);\r\n        buyers[msg.sender].sale = 0;\r\n        buyers[msg.sender].base = 0;\r\n        \r\n        emit UserWithdrawTokensSuccess(buyer.sale);\r\n    }\r\n    \r\n    // On presale failure\r\n    // Percentile withdrawls allows fee on transfer or rebasing tokens to still work\r\n    function userWithdrawBaseTokens () public nonReentrant {\r\n        require(presaleStatus() == 3, \"Not failed.\"); // FAILED\r\n        \r\n        // Refund\r\n        BuyerInfo storage buyer = buyers[msg.sender];\r\n        \r\n        uint256 remainingBaseBalance = address(this).balance;\r\n        \r\n        require(remainingBaseBalance >= buyer.base, \"Nothing to withdraw.\");\r\n\r\n        status.base_withdraw = status.base_withdraw.add(buyer.base);\r\n        \r\n        address payable reciver = payable(msg.sender);\r\n        reciver.transfer(buyer.base);\r\n\r\n        if(msg.sender == owner) {\r\n            ownerWithdrawTokens();\r\n            // return;\r\n        }\r\n        buyer.base = 0;\r\n        buyer.sale = 0;\r\n        \r\n        emit UserWithdrawSuccess(buyer.base);\r\n        // TransferHelper.safeTransferBaseToken(address(presale_info.base_token), msg.sender, tokensOwed, false);\r\n    }\r\n    \r\n    // On presale failure\r\n    // Allows the owner to withdraw the tokens they sent for presale\r\n    function ownerWithdrawTokens () private onlyOwner {\r\n        require(presaleStatus() == 3, \"Only failed status.\"); // Failed\r\n        TransferHelper.safeTransfer(address(presale_info.sale_token), owner, IERC20(presale_info.sale_token).balanceOf(address(this)));\r\n        \r\n        emit UserWithdrawSuccess(IERC20(presale_info.sale_token).balanceOf(address(this)));\r\n    }\r\n\r\n    function purchaseICOCoin () public nonReentrant onlyOwner {\r\n        require(presaleStatus() == 2, \"Not succeeded\"); // Success\r\n        \r\n        address payable reciver = payable(owner);\r\n        reciver.transfer(address(this).balance);\r\n    }\r\n\r\n    function getTimestamp () public view returns (uint256) {\r\n        return block.timestamp;\r\n    }\r\n\r\n    function refundTokens() public onlyOwner {\r\n        require(presaleStatus() == 2, \"Not succeeded\"); // Success\r\n        require(block.timestamp > presale_info.presale_end, \"Must be after presale end time\");\r\n \r\n        uint256 refundTokenAmount = IERC20(presale_info.sale_token).balanceOf(address(this));\r\n\r\n        require(refundTokenAmount > 0, \"No token in this contract now.\");\r\n\r\n        TransferHelper.safeTransfer(address(presale_info.sale_token), address(msg.sender), refundTokenAmount);\r\n    }\r\n}",
  "sourcePath": "C:\\images\\bucketweb3\\tokenpresaleapp\\contracts\\token_presale.sol",
  "compiler": {
    "name": "solc",
    "version": "0.6.12+commit.27d51765.Emscripten.clang"
  },
  "schemaVersion": "3.4.16",
  "updatedAt": "2026-01-29T16:46:01.544Z",
  "networkType": "ethereum",
  "devdoc": {
    "kind": "dev",
    "methods": {},
    "version": 1
  },
  "userdoc": {
    "kind": "user",
    "methods": {},
    "version": 1
  }
}